{
  "_format": "hh-sol-artifact-1",
  "contractName": "Ballot",
  "sourceName": "contracts/Election.sol",
  "abi": [
    {
      "inputs": [
        {
          "internalType": "bytes32[]",
          "name": "proposalNames",
          "type": "bytes32[]"
        }
      ],
      "stateMutability": "nonpayable",
      "type": "constructor"
    },
    {
      "inputs": [],
      "name": "chairperson",
      "outputs": [
        {
          "internalType": "address",
          "name": "",
          "type": "address"
        }
      ],
      "stateMutability": "view",
      "type": "function"
    },
    {
      "inputs": [
        {
          "internalType": "address",
          "name": "voter",
          "type": "address"
        }
      ],
      "name": "giveRightToVote",
      "outputs": [],
      "stateMutability": "nonpayable",
      "type": "function"
    },
    {
      "inputs": [
        {
          "internalType": "uint256",
          "name": "",
          "type": "uint256"
        }
      ],
      "name": "proposals",
      "outputs": [
        {
          "internalType": "bytes32",
          "name": "name",
          "type": "bytes32"
        },
        {
          "internalType": "int256",
          "name": "voteCount",
          "type": "int256"
        }
      ],
      "stateMutability": "view",
      "type": "function"
    },
    {
      "inputs": [
        {
          "internalType": "uint256",
          "name": "proposal1",
          "type": "uint256"
        },
        {
          "internalType": "uint256",
          "name": "proposal2",
          "type": "uint256"
        },
        {
          "internalType": "uint256",
          "name": "proposal3",
          "type": "uint256"
        },
        {
          "internalType": "uint256",
          "name": "proposal4",
          "type": "uint256"
        },
        {
          "internalType": "uint256",
          "name": "proposal5",
          "type": "uint256"
        }
      ],
      "name": "vote",
      "outputs": [],
      "stateMutability": "nonpayable",
      "type": "function"
    },
    {
      "inputs": [
        {
          "internalType": "address",
          "name": "",
          "type": "address"
        }
      ],
      "name": "voters",
      "outputs": [
        {
          "internalType": "uint256",
          "name": "weight",
          "type": "uint256"
        },
        {
          "internalType": "bool",
          "name": "voted",
          "type": "bool"
        }
      ],
      "stateMutability": "view",
      "type": "function"
    },
    {
      "inputs": [],
      "name": "winningProposal",
      "outputs": [
        {
          "internalType": "int256",
          "name": "winningProposal_",
          "type": "int256"
        }
      ],
      "stateMutability": "view",
      "type": "function"
    },
    {
      "inputs": [],
      "name": "winningTopList",
      "outputs": [
        {
          "internalType": "int256[]",
          "name": "",
          "type": "int256[]"
        }
      ],
      "stateMutability": "view",
      "type": "function"
    }
  ],
  "bytecode": "0x60806040523480156200001157600080fd5b506040516200148638038062001486833981810160405281019062000037919062000342565b336000806101000a81548173ffffffffffffffffffffffffffffffffffffffff021916908373ffffffffffffffffffffffffffffffffffffffff16021790555060018060008060009054906101000a900473ffffffffffffffffffffffffffffffffffffffff1673ffffffffffffffffffffffffffffffffffffffff1673ffffffffffffffffffffffffffffffffffffffff1681526020019081526020016000206000018190555060005b81518110156200017657600260405180604001604052808484815181106200010f576200010e62000393565b5b60200260200101518152602001600081525090806001815401808255809150506001900390600052602060002090600202016000909190919091506000820151816000015560208201518160010155505080806200016d90620003fb565b915050620000e2565b505062000448565b6000604051905090565b600080fd5b600080fd5b600080fd5b6000601f19601f8301169050919050565b7f4e487b7100000000000000000000000000000000000000000000000000000000600052604160045260246000fd5b620001e28262000197565b810181811067ffffffffffffffff82111715620002045762000203620001a8565b5b80604052505050565b6000620002196200017e565b9050620002278282620001d7565b919050565b600067ffffffffffffffff8211156200024a5762000249620001a8565b5b602082029050602081019050919050565b600080fd5b6000819050919050565b620002758162000260565b81146200028157600080fd5b50565b60008151905062000295816200026a565b92915050565b6000620002b2620002ac846200022c565b6200020d565b90508083825260208201905060208402830185811115620002d857620002d76200025b565b5b835b81811015620003055780620002f0888262000284565b845260208401935050602081019050620002da565b5050509392505050565b600082601f83011262000327576200032662000192565b5b8151620003398482602086016200029b565b91505092915050565b6000602082840312156200035b576200035a62000188565b5b600082015167ffffffffffffffff8111156200037c576200037b6200018d565b5b6200038a848285016200030f565b91505092915050565b7f4e487b7100000000000000000000000000000000000000000000000000000000600052603260045260246000fd5b7f4e487b7100000000000000000000000000000000000000000000000000000000600052601160045260246000fd5b6000819050919050565b60006200040882620003f1565b91507fffffffffffffffffffffffffffffffffffffffffffffffffffffffffffffffff82036200043d576200043c620003c2565b5b600182019050919050565b61102e80620004586000396000f3fe608060405234801561001057600080fd5b506004361061007d5760003560e01c80639e7b8d611161005b5780639e7b8d61146100ef578063a3ec138d1461010b578063b59d88311461013c578063ca1e51341461015a5761007d565b8063013cf08b146100825780632e4176cf146100b3578063609ff1bd146100d1575b600080fd5b61009c60048036038101906100979190610967565b610176565b6040516100aa9291906109c6565b60405180910390f35b6100bb6101aa565b6040516100c89190610a30565b60405180910390f35b6100d96101ce565b6040516100e69190610a4b565b60405180910390f35b61010960048036038101906101049190610a92565b610256565b005b61012560048036038101906101209190610a92565b61040d565b604051610133929190610ae9565b60405180910390f35b61014461043e565b6040516101519190610bd0565b60405180910390f35b610174600480360381019061016f9190610bf2565b6106fc565b005b6002818154811061018657600080fd5b90600052602060002090600202016000915090508060000154908060010154905082565b60008054906101000a900473ffffffffffffffffffffffffffffffffffffffff1681565b6000806000905060005b6002805490508110156102515781600282815481106101fa576101f9610c6d565b5b906000526020600020906002020160010154131561023e576002818154811061022657610225610c6d565b5b90600052602060002090600202016001015491508092505b808061024990610ccb565b9150506101d8565b505090565b60008054906101000a900473ffffffffffffffffffffffffffffffffffffffff1673ffffffffffffffffffffffffffffffffffffffff163373ffffffffffffffffffffffffffffffffffffffff16146102e4576040517f08c379a00000000000000000000000000000000000000000000000000000000081526004016102db90610d96565b60405180910390fd5b600160008273ffffffffffffffffffffffffffffffffffffffff1673ffffffffffffffffffffffffffffffffffffffff16815260200190815260200160002060010160009054906101000a900460ff1615610374576040517f08c379a000000000000000000000000000000000000000000000000000000000815260040161036b90610e02565b60405180910390fd5b6000600160008373ffffffffffffffffffffffffffffffffffffffff1673ffffffffffffffffffffffffffffffffffffffff16815260200190815260200160002060000154146103c357600080fd5b60018060008373ffffffffffffffffffffffffffffffffffffffff1673ffffffffffffffffffffffffffffffffffffffff1681526020019081526020016000206000018190555050565b60016020528060005260406000206000915090508060000154908060010160009054906101000a900460ff16905082565b60606000600367ffffffffffffffff81111561045d5761045c610e22565b5b60405190808252806020026020018201604052801561048b5781602001602082028036833780820191505090505b5090506000600280549050905060007fffffffffffffffffffffffffffffffffffffffffffffffffffffffffffffff9c90506000806000805b858110156105385784600282815481106104e1576104e0610c6d565b5b9060005260206000209060020201600101541315610525576002818154811061050d5761050c610c6d565b5b90600052602060002090600202016001015494508093505b808061053090610ccb565b9150506104c4565b507fffffffffffffffffffffffffffffffffffffffffffffffffffffffffffffff9c935060005b858112156105db578381146105c857846002828154811061058357610582610c6d565b5b90600052602060002090600202016001015413156105c757600281815481106105af576105ae610c6d565b5b90600052602060002090600202016001015494508092505b5b80806105d390610e51565b91505061055f565b507fffffffffffffffffffffffffffffffffffffffffffffffffffffffffffffff9c935060005b8581121561068c5783811415801561061a5750828114155b1561067957846002828154811061063457610633610c6d565b5b906000526020600020906002020160010154131561067857600281815481106106605761065f610c6d565b5b90600052602060002090600202016001015494508091505b5b808061068490610e51565b915050610602565b5082866000815181106106a2576106a1610c6d565b5b60200260200101818152505081866001815181106106c3576106c2610c6d565b5b60200260200101818152505080866002815181106106e4576106e3610c6d565b5b60200260200101818152505085965050505050505090565b6000600160003373ffffffffffffffffffffffffffffffffffffffff1673ffffffffffffffffffffffffffffffffffffffff16815260200190815260200160002090506000816000015403610786576040517f08c379a000000000000000000000000000000000000000000000000000000000815260040161077d90610ee5565b60405180910390fd5b8060010160009054906101000a900460ff16156107d8576040517f08c379a00000000000000000000000000000000000000000000000000000000081526004016107cf90610f51565b60405180910390fd5b60018160010160006101000a81548160ff02191690831515021790555060036002878154811061080b5761080a610c6d565b5b9060005260206000209060020201600101600082825461082b9190610f71565b92505081905550600280868154811061084757610846610c6d565b5b906000526020600020906002020160010160008282546108679190610f71565b9250508190555060016002858154811061088457610883610c6d565b5b906000526020600020906002020160010160008282546108a49190610f71565b925050819055506001600284815481106108c1576108c0610c6d565b5b906000526020600020906002020160010160008282546108e19190610fb5565b9250508190555060028083815481106108fd576108fc610c6d565b5b9060005260206000209060020201600101600082825461091d9190610fb5565b92505081905550505050505050565b600080fd5b6000819050919050565b61094481610931565b811461094f57600080fd5b50565b6000813590506109618161093b565b92915050565b60006020828403121561097d5761097c61092c565b5b600061098b84828501610952565b91505092915050565b6000819050919050565b6109a781610994565b82525050565b6000819050919050565b6109c0816109ad565b82525050565b60006040820190506109db600083018561099e565b6109e860208301846109b7565b9392505050565b600073ffffffffffffffffffffffffffffffffffffffff82169050919050565b6000610a1a826109ef565b9050919050565b610a2a81610a0f565b82525050565b6000602082019050610a456000830184610a21565b92915050565b6000602082019050610a6060008301846109b7565b92915050565b610a6f81610a0f565b8114610a7a57600080fd5b50565b600081359050610a8c81610a66565b92915050565b600060208284031215610aa857610aa761092c565b5b6000610ab684828501610a7d565b91505092915050565b610ac881610931565b82525050565b60008115159050919050565b610ae381610ace565b82525050565b6000604082019050610afe6000830185610abf565b610b0b6020830184610ada565b9392505050565b600081519050919050565b600082825260208201905092915050565b6000819050602082019050919050565b610b47816109ad565b82525050565b6000610b598383610b3e565b60208301905092915050565b6000602082019050919050565b6000610b7d82610b12565b610b878185610b1d565b9350610b9283610b2e565b8060005b83811015610bc3578151610baa8882610b4d565b9750610bb583610b65565b925050600181019050610b96565b5085935050505092915050565b60006020820190508181036000830152610bea8184610b72565b905092915050565b600080600080600060a08688031215610c0e57610c0d61092c565b5b6000610c1c88828901610952565b9550506020610c2d88828901610952565b9450506040610c3e88828901610952565b9350506060610c4f88828901610952565b9250506080610c6088828901610952565b9150509295509295909350565b7f4e487b7100000000000000000000000000000000000000000000000000000000600052603260045260246000fd5b7f4e487b7100000000000000000000000000000000000000000000000000000000600052601160045260246000fd5b6000610cd682610931565b91507fffffffffffffffffffffffffffffffffffffffffffffffffffffffffffffffff8203610d0857610d07610c9c565b5b600182019050919050565b600082825260208201905092915050565b7f4f6e6c79206368616972706572736f6e2063616e20676976652072696768742060008201527f746f20766f74652e000000000000000000000000000000000000000000000000602082015250565b6000610d80602883610d13565b9150610d8b82610d24565b604082019050919050565b60006020820190508181036000830152610daf81610d73565b9050919050565b7f54686520766f74657220616c726561647920766f7465642e0000000000000000600082015250565b6000610dec601883610d13565b9150610df782610db6565b602082019050919050565b60006020820190508181036000830152610e1b81610ddf565b9050919050565b7f4e487b7100000000000000000000000000000000000000000000000000000000600052604160045260246000fd5b6000610e5c826109ad565b91507f7fffffffffffffffffffffffffffffffffffffffffffffffffffffffffffffff8203610e8e57610e8d610c9c565b5b600182019050919050565b7f486173206e6f20726967687420746f20766f7465000000000000000000000000600082015250565b6000610ecf601483610d13565b9150610eda82610e99565b602082019050919050565b60006020820190508181036000830152610efe81610ec2565b9050919050565b7f416c726561647920766f7465642e000000000000000000000000000000000000600082015250565b6000610f3b600e83610d13565b9150610f4682610f05565b602082019050919050565b60006020820190508181036000830152610f6a81610f2e565b9050919050565b6000610f7c826109ad565b9150610f87836109ad565b925082820190508281121560008312168382126000841215161715610faf57610fae610c9c565b5b92915050565b6000610fc0826109ad565b9150610fcb836109ad565b9250828203905081811260008412168282136000851215161715610ff257610ff1610c9c565b5b9291505056fea2646970667358221220fc30216555b1d546b88a8239eb87e2b63343dc294e4f20e8043980433f73b4a864736f6c63430008110033",
  "linkReferences": {},
  "deployedLinkReferences": {}
}