{
  "_format": "hh-sol-artifact-1",
  "contractName": "TokenizedBallot",
  "sourceName": "contracts/TokenizedBallot.sol",
  "abi": [
    {
      "inputs": [
        {
          "internalType": "bytes32[]",
          "name": "proposalNames",
          "type": "bytes32[]"
        },
        {
          "internalType": "address",
          "name": "_tokenContract",
          "type": "address"
        },
        {
          "internalType": "uint256",
          "name": "_referenceBlock",
          "type": "uint256"
        }
      ],
      "stateMutability": "nonpayable",
      "type": "constructor"
    },
    {
      "inputs": [
        {
          "internalType": "uint256",
          "name": "",
          "type": "uint256"
        }
      ],
      "name": "proposals",
      "outputs": [
        {
          "internalType": "bytes32",
          "name": "name",
          "type": "bytes32"
        },
        {
          "internalType": "int256",
          "name": "voteCount",
          "type": "int256"
        }
      ],
      "stateMutability": "view",
      "type": "function"
    },
    {
      "inputs": [],
      "name": "referenceBlock",
      "outputs": [
        {
          "internalType": "uint256",
          "name": "",
          "type": "uint256"
        }
      ],
      "stateMutability": "view",
      "type": "function"
    },
    {
      "inputs": [],
      "name": "tokenContract",
      "outputs": [
        {
          "internalType": "contract ITokenizedVotes",
          "name": "",
          "type": "address"
        }
      ],
      "stateMutability": "view",
      "type": "function"
    },
    {
      "inputs": [
        {
          "internalType": "uint256",
          "name": "proposal1",
          "type": "uint256"
        },
        {
          "internalType": "uint256",
          "name": "proposal2",
          "type": "uint256"
        },
        {
          "internalType": "uint256",
          "name": "proposal3",
          "type": "uint256"
        },
        {
          "internalType": "uint256",
          "name": "proposal4",
          "type": "uint256"
        },
        {
          "internalType": "uint256",
          "name": "proposal5",
          "type": "uint256"
        },
        {
          "internalType": "uint256",
          "name": "amount",
          "type": "uint256"
        }
      ],
      "name": "vote",
      "outputs": [],
      "stateMutability": "nonpayable",
      "type": "function"
    },
    {
      "inputs": [
        {
          "internalType": "address",
          "name": "account",
          "type": "address"
        }
      ],
      "name": "votePower",
      "outputs": [
        {
          "internalType": "uint256",
          "name": "votePower_",
          "type": "uint256"
        }
      ],
      "stateMutability": "view",
      "type": "function"
    },
    {
      "inputs": [
        {
          "internalType": "address",
          "name": "",
          "type": "address"
        }
      ],
      "name": "votePowerSpent",
      "outputs": [
        {
          "internalType": "uint256",
          "name": "",
          "type": "uint256"
        }
      ],
      "stateMutability": "view",
      "type": "function"
    },
    {
      "inputs": [],
      "name": "winningProp",
      "outputs": [
        {
          "internalType": "int256[]",
          "name": "",
          "type": "int256[]"
        }
      ],
      "stateMutability": "view",
      "type": "function"
    },
    {
      "inputs": [],
      "name": "winningProposal",
      "outputs": [
        {
          "internalType": "int256",
          "name": "winningProposal_",
          "type": "int256"
        }
      ],
      "stateMutability": "view",
      "type": "function"
    }
  ],
  "bytecode": "0x60806040523480156200001157600080fd5b506040516200150238038062001502833981810160405281019062000037919062000384565b60005b8351811015620000ce5760026040518060400160405280868481518110620000675762000066620003ff565b5b6020026020010151815260200160008152509080600181540180825580915050600190039060005260206000209060020201600090919091909150600082015181600001556020820151816001015550508080620000c5906200045d565b9150506200003a565b5081600160006101000a81548173ffffffffffffffffffffffffffffffffffffffff021916908373ffffffffffffffffffffffffffffffffffffffff16021790555080600081905550505050620004aa565b6000604051905090565b600080fd5b600080fd5b600080fd5b6000601f19601f8301169050919050565b7f4e487b7100000000000000000000000000000000000000000000000000000000600052604160045260246000fd5b620001848262000139565b810181811067ffffffffffffffff82111715620001a657620001a56200014a565b5b80604052505050565b6000620001bb62000120565b9050620001c9828262000179565b919050565b600067ffffffffffffffff821115620001ec57620001eb6200014a565b5b602082029050602081019050919050565b600080fd5b6000819050919050565b620002178162000202565b81146200022357600080fd5b50565b60008151905062000237816200020c565b92915050565b6000620002546200024e84620001ce565b620001af565b905080838252602082019050602084028301858111156200027a5762000279620001fd565b5b835b81811015620002a7578062000292888262000226565b8452602084019350506020810190506200027c565b5050509392505050565b600082601f830112620002c957620002c862000134565b5b8151620002db8482602086016200023d565b91505092915050565b600073ffffffffffffffffffffffffffffffffffffffff82169050919050565b60006200031182620002e4565b9050919050565b620003238162000304565b81146200032f57600080fd5b50565b600081519050620003438162000318565b92915050565b6000819050919050565b6200035e8162000349565b81146200036a57600080fd5b50565b6000815190506200037e8162000353565b92915050565b600080600060608486031215620003a0576200039f6200012a565b5b600084015167ffffffffffffffff811115620003c157620003c06200012f565b5b620003cf86828701620002b1565b9350506020620003e28682870162000332565b9250506040620003f5868287016200036d565b9150509250925092565b7f4e487b7100000000000000000000000000000000000000000000000000000000600052603260045260246000fd5b7f4e487b7100000000000000000000000000000000000000000000000000000000600052601160045260246000fd5b60006200046a8262000349565b91507fffffffffffffffffffffffffffffffffffffffffffffffffffffffffffffffff82036200049f576200049e6200042e565b5b600182019050919050565b61104880620004ba6000396000f3fe608060405234801561001057600080fd5b50600436106100885760003560e01c80639e90d0d91161005b5780639e90d0d914610118578063d94c8caa14610148578063e490e69914610166578063feaf10481461019657610088565b8063013cf08b1461008d5780630374694b146100be57806355a373d6146100dc578063609ff1bd146100fa575b600080fd5b6100a760048036038101906100a291906108ae565b6101b2565b6040516100b592919061090d565b60405180910390f35b6100c66101e6565b6040516100d391906109f4565b60405180910390f35b6100e46104a4565b6040516100f19190610a95565b60405180910390f35b6101026104ca565b60405161010f9190610ab0565b60405180910390f35b610132600480360381019061012d9190610b09565b610552565b60405161013f9190610b45565b60405180910390f35b61015061056a565b60405161015d9190610b45565b60405180910390f35b610180600480360381019061017b9190610b09565b610570565b60405161018d9190610b45565b60405180910390f35b6101b060048036038101906101ab9190610b60565b610619565b005b600281815481106101c257600080fd5b90600052602060002090600202016000915090508060000154908060010154905082565b60606000600367ffffffffffffffff81111561020557610204610bed565b5b6040519080825280602002602001820160405280156102335781602001602082028036833780820191505090505b5090506000600280549050905060007fffffffffffffffffffffffffffffffffffffffffffffffffffffffffffffff9c90506000806000805b858112156102e057846002828154811061028957610288610c1c565b5b90600052602060002090600202016001015413156102cd57600281815481106102b5576102b4610c1c565b5b90600052602060002090600202016001015494508093505b80806102d890610c7a565b91505061026c565b507fffffffffffffffffffffffffffffffffffffffffffffffffffffffffffffff9c935060005b858112156103835783811461037057846002828154811061032b5761032a610c1c565b5b906000526020600020906002020160010154131561036f576002818154811061035757610356610c1c565b5b90600052602060002090600202016001015494508092505b5b808061037b90610c7a565b915050610307565b507fffffffffffffffffffffffffffffffffffffffffffffffffffffffffffffff9c935060005b85811215610434578381141580156103c25750828114155b156104215784600282815481106103dc576103db610c1c565b5b9060005260206000209060020201600101541315610420576002818154811061040857610407610c1c565b5b90600052602060002090600202016001015494508091505b5b808061042c90610c7a565b9150506103aa565b50828660008151811061044a57610449610c1c565b5b602002602001018181525050818660018151811061046b5761046a610c1c565b5b602002602001018181525050808660028151811061048c5761048b610c1c565b5b60200260200101818152505085965050505050505090565b600160009054906101000a900473ffffffffffffffffffffffffffffffffffffffff1681565b6000806000905060005b60028054905081101561054d5781600282815481106104f6576104f5610c1c565b5b906000526020600020906002020160010154131561053a576002818154811061052257610521610c1c565b5b90600052602060002090600202016001015491508092505b808061054590610cc2565b9150506104d4565b505090565b60036020528060005260406000206000915090505481565b60005481565b6000600160009054906101000a900473ffffffffffffffffffffffffffffffffffffffff1673ffffffffffffffffffffffffffffffffffffffff16633a46b1a8836000546040518363ffffffff1660e01b81526004016105d1929190610d19565b602060405180830381865afa1580156105ee573d6000803e3d6000fd5b505050506040513d601f19601f820116820180604052508101906106129190610d57565b9050919050565b600061062433610570565b905081811015610669576040517f08c379a000000000000000000000000000000000000000000000000000000000815260040161066090610e2d565b60405180910390fd5b600082116106ac576040517f08c379a00000000000000000000000000000000000000000000000000000000081526004016106a390610ebf565b60405180910390fd5b81600360003373ffffffffffffffffffffffffffffffffffffffff1673ffffffffffffffffffffffffffffffffffffffff16815260200190815260200160002060008282546106fb9190610edf565b9250508190555081600361070f9190610f13565b6002888154811061072357610722610c1c565b5b906000526020600020906002020160010160008282546107439190610f8b565b925050819055508160026107579190610f13565b6002878154811061076b5761076a610c1c565b5b9060005260206000209060020201600101600082825461078b9190610f8b565b9250508190555081600161079f9190610f13565b600286815481106107b3576107b2610c1c565b5b906000526020600020906002020160010160008282546107d39190610f8b565b925050819055508160016107e79190610f13565b600285815481106107fb576107fa610c1c565b5b9060005260206000209060020201600101600082825461081b9190610fcf565b9250508190555081600261082f9190610f13565b6002848154811061084357610842610c1c565b5b906000526020600020906002020160010160008282546108639190610fcf565b9250508190555050505050505050565b600080fd5b6000819050919050565b61088b81610878565b811461089657600080fd5b50565b6000813590506108a881610882565b92915050565b6000602082840312156108c4576108c3610873565b5b60006108d284828501610899565b91505092915050565b6000819050919050565b6108ee816108db565b82525050565b6000819050919050565b610907816108f4565b82525050565b600060408201905061092260008301856108e5565b61092f60208301846108fe565b9392505050565b600081519050919050565b600082825260208201905092915050565b6000819050602082019050919050565b61096b816108f4565b82525050565b600061097d8383610962565b60208301905092915050565b6000602082019050919050565b60006109a182610936565b6109ab8185610941565b93506109b683610952565b8060005b838110156109e75781516109ce8882610971565b97506109d983610989565b9250506001810190506109ba565b5085935050505092915050565b60006020820190508181036000830152610a0e8184610996565b905092915050565b600073ffffffffffffffffffffffffffffffffffffffff82169050919050565b6000819050919050565b6000610a5b610a56610a5184610a16565b610a36565b610a16565b9050919050565b6000610a6d82610a40565b9050919050565b6000610a7f82610a62565b9050919050565b610a8f81610a74565b82525050565b6000602082019050610aaa6000830184610a86565b92915050565b6000602082019050610ac560008301846108fe565b92915050565b6000610ad682610a16565b9050919050565b610ae681610acb565b8114610af157600080fd5b50565b600081359050610b0381610add565b92915050565b600060208284031215610b1f57610b1e610873565b5b6000610b2d84828501610af4565b91505092915050565b610b3f81610878565b82525050565b6000602082019050610b5a6000830184610b36565b92915050565b60008060008060008060c08789031215610b7d57610b7c610873565b5b6000610b8b89828a01610899565b9650506020610b9c89828a01610899565b9550506040610bad89828a01610899565b9450506060610bbe89828a01610899565b9350506080610bcf89828a01610899565b92505060a0610be089828a01610899565b9150509295509295509295565b7f4e487b7100000000000000000000000000000000000000000000000000000000600052604160045260246000fd5b7f4e487b7100000000000000000000000000000000000000000000000000000000600052603260045260246000fd5b7f4e487b7100000000000000000000000000000000000000000000000000000000600052601160045260246000fd5b6000610c85826108f4565b91507f7fffffffffffffffffffffffffffffffffffffffffffffffffffffffffffffff8203610cb757610cb6610c4b565b5b600182019050919050565b6000610ccd82610878565b91507fffffffffffffffffffffffffffffffffffffffffffffffffffffffffffffffff8203610cff57610cfe610c4b565b5b600182019050919050565b610d1381610acb565b82525050565b6000604082019050610d2e6000830185610d0a565b610d3b6020830184610b36565b9392505050565b600081519050610d5181610882565b92915050565b600060208284031215610d6d57610d6c610873565b5b6000610d7b84828501610d42565b91505092915050565b600082825260208201905092915050565b7f546f6b656e697a656442616c6c6f743a20747279696e6720746f20766f74652060008201527f6d6f7265207468616e2074686520766f746520706f77657220617661696c616260208201527f6c6520666f7220746865206163636f756e740000000000000000000000000000604082015250565b6000610e17605283610d84565b9150610e2282610d95565b606082019050919050565b60006020820190508181036000830152610e4681610e0a565b9050919050565b7f546f6b656e697a656442616c6c6f743a20747279696e6720746f20766f74652060008201527f7769746820616d6f756e74207a65726f00000000000000000000000000000000602082015250565b6000610ea9603083610d84565b9150610eb482610e4d565b604082019050919050565b60006020820190508181036000830152610ed881610e9c565b9050919050565b6000610eea82610878565b9150610ef583610878565b9250828201905080821115610f0d57610f0c610c4b565b5b92915050565b6000610f1e826108f4565b9150610f29836108f4565b9250828202610f37816108f4565b91507f80000000000000000000000000000000000000000000000000000000000000008414600084121615610f6f57610f6e610c4b565b5b8282058414831517610f8457610f83610c4b565b5b5092915050565b6000610f96826108f4565b9150610fa1836108f4565b925082820190508281121560008312168382126000841215161715610fc957610fc8610c4b565b5b92915050565b6000610fda826108f4565b9150610fe5836108f4565b925082820390508181126000841216828213600085121516171561100c5761100b610c4b565b5b9291505056fea264697066735822122051bf13c795a6809acea423e771ea2271e1391522ab1134a77dbaedfbecac5a3e64736f6c63430008110033",
  "linkReferences": {},
  "deployedLinkReferences": {}
}